{
  "contractName": "ArbitrageExecutor",
  "abi": [
    {
      "inputs": [
        {
          "internalType": "address",
          "name": "_savETHManagerAddress",
          "type": "address"
        },
        {
          "internalType": "address",
          "name": "_dETHAddress",
          "type": "address"
        }
      ],
      "stateMutability": "nonpayable",
      "type": "constructor"
    },
    {
      "anonymous": false,
      "inputs": [
        {
          "indexed": false,
          "internalType": "bytes[]",
          "name": "blsPublicKeysOpenIndex",
          "type": "bytes[]"
        },
        {
          "indexed": false,
          "internalType": "bytes[]",
          "name": "blsPublicKeysUserIndex",
          "type": "bytes[]"
        },
        {
          "indexed": false,
          "internalType": "address[]",
          "name": "openIndexStakeHouses",
          "type": "address[]"
        },
        {
          "indexed": false,
          "internalType": "address[]",
          "name": "userIndexStakeHouses",
          "type": "address[]"
        },
        {
          "indexed": false,
          "internalType": "uint256",
          "name": "userIndexId",
          "type": "uint256"
        },
        {
          "indexed": false,
          "internalType": "uint256",
          "name": "dETHRequiredForIsolation",
          "type": "uint256"
        },
        {
          "indexed": false,
          "internalType": "address",
          "name": "userAddress",
          "type": "address"
        }
      ],
      "name": "ArbitrageExecuted",
      "type": "event"
    },
    {
      "anonymous": false,
      "inputs": [
        {
          "indexed": false,
          "internalType": "address",
          "name": "stakeHouse",
          "type": "address"
        },
        {
          "indexed": false,
          "internalType": "bytes",
          "name": "blsPublicKey",
          "type": "bytes"
        },
        {
          "indexed": false,
          "internalType": "uint256",
          "name": "userIndexId",
          "type": "uint256"
        }
      ],
      "name": "KNOTAddedToOpenIndex",
      "type": "event"
    },
    {
      "anonymous": false,
      "inputs": [
        {
          "indexed": false,
          "internalType": "address",
          "name": "stakeHouse",
          "type": "address"
        },
        {
          "indexed": false,
          "internalType": "bytes",
          "name": "blsPublicKey",
          "type": "bytes"
        },
        {
          "indexed": false,
          "internalType": "uint256",
          "name": "userIndexId",
          "type": "uint256"
        }
      ],
      "name": "KNOTIsolated",
      "type": "event"
    },
    {
      "anonymous": false,
      "inputs": [
        {
          "indexed": true,
          "internalType": "address",
          "name": "previousOwner",
          "type": "address"
        },
        {
          "indexed": true,
          "internalType": "address",
          "name": "newOwner",
          "type": "address"
        }
      ],
      "name": "OwnershipTransferred",
      "type": "event"
    },
    {
      "inputs": [],
      "name": "deth",
      "outputs": [
        {
          "internalType": "contract DETH",
          "name": "",
          "type": "address"
        }
      ],
      "stateMutability": "view",
      "type": "function"
    },
    {
      "inputs": [],
      "name": "owner",
      "outputs": [
        {
          "internalType": "address",
          "name": "",
          "type": "address"
        }
      ],
      "stateMutability": "view",
      "type": "function"
    },
    {
      "inputs": [],
      "name": "renounceOwnership",
      "outputs": [],
      "stateMutability": "nonpayable",
      "type": "function"
    },
    {
      "inputs": [],
      "name": "savETHManager",
      "outputs": [
        {
          "internalType": "contract ISavETHManager",
          "name": "",
          "type": "address"
        }
      ],
      "stateMutability": "view",
      "type": "function"
    },
    {
      "inputs": [
        {
          "internalType": "address",
          "name": "newOwner",
          "type": "address"
        }
      ],
      "name": "transferOwnership",
      "outputs": [],
      "stateMutability": "nonpayable",
      "type": "function"
    },
    {
      "inputs": [
        {
          "internalType": "bytes[]",
          "name": "_blsPublicKeysOpenIndex",
          "type": "bytes[]"
        },
        {
          "internalType": "bytes[]",
          "name": "_blsPublicKeysUserIndex",
          "type": "bytes[]"
        },
        {
          "internalType": "address[]",
          "name": "_openIndexStakeHouses",
          "type": "address[]"
        },
        {
          "internalType": "address[]",
          "name": "_userIndexStakeHouses",
          "type": "address[]"
        },
        {
          "internalType": "uint256",
          "name": "_userIndexId",
          "type": "uint256"
        },
        {
          "internalType": "uint256",
          "name": "_dETHRequiredForIsolation",
          "type": "uint256"
        },
        {
          "internalType": "address",
          "name": "_userAddress",
          "type": "address"
        }
      ],
      "name": "executeArbitrage",
      "outputs": [],
      "stateMutability": "nonpayable",
      "type": "function"
    },
    {
      "inputs": [
        {
          "internalType": "address",
          "name": "_newSavETHManagerAddress",
          "type": "address"
        }
      ],
      "name": "changeSavETHManagerAddress",
      "outputs": [],
      "stateMutability": "nonpayable",
      "type": "function"
    },
    {
      "inputs": [
        {
          "internalType": "address",
          "name": "_newDETHAddress",
          "type": "address"
        }
      ],
      "name": "changeDETHAddress",
      "outputs": [],
      "stateMutability": "nonpayable",
      "type": "function"
    }
  ],
  "bytecode": "0x60806040523480156200001157600080fd5b506040516200198438038062001984833981810160405281019062000037919062000221565b60016000819055506200005f62000053620000e960201b60201c565b620000f160201b60201c565b81600260006101000a81548173ffffffffffffffffffffffffffffffffffffffff021916908373ffffffffffffffffffffffffffffffffffffffff16021790555080600360006101000a81548173ffffffffffffffffffffffffffffffffffffffff021916908373ffffffffffffffffffffffffffffffffffffffff160217905550505062000268565b600033905090565b6000600160009054906101000a900473ffffffffffffffffffffffffffffffffffffffff16905081600160006101000a81548173ffffffffffffffffffffffffffffffffffffffff021916908373ffffffffffffffffffffffffffffffffffffffff1602179055508173ffffffffffffffffffffffffffffffffffffffff168173ffffffffffffffffffffffffffffffffffffffff167f8be0079c531659141344cd1fd0a4f28419497f9722a3daafe3b4186f6b6457e060405160405180910390a35050565b600080fd5b600073ffffffffffffffffffffffffffffffffffffffff82169050919050565b6000620001e982620001bc565b9050919050565b620001fb81620001dc565b81146200020757600080fd5b50565b6000815190506200021b81620001f0565b92915050565b600080604083850312156200023b576200023a620001b7565b5b60006200024b858286016200020a565b92505060206200025e858286016200020a565b9150509250929050565b61170c80620002786000396000f3fe608060405234801561001057600080fd5b50600436106100885760003560e01c8063c5334aaf1161005b578063c5334aaf146100ed578063d18ccd891461010b578063f2fde38b14610129578063fa94f72a1461014557610088565b80634503d9eb1461008d578063715018a6146100a95780638da5cb5b146100b3578063be4bcab3146100d1575b600080fd5b6100a760048036038101906100a29190610a5e565b610161565b005b6100b16101ad565b005b6100bb6101c1565b6040516100c89190610a9a565b60405180910390f35b6100eb60048036038101906100e69190610ba6565b6101eb565b005b6100f5610736565b6040516101029190610d29565b60405180910390f35b61011361075c565b6040516101209190610d65565b60405180910390f35b610143600480360381019061013e9190610a5e565b610782565b005b61015f600480360381019061015a9190610a5e565b610805565b005b610169610851565b80600360006101000a81548173ffffffffffffffffffffffffffffffffffffffff021916908373ffffffffffffffffffffffffffffffffffffffff16021790555050565b6101b5610851565b6101bf60006108cf565b565b6000600160009054906101000a900473ffffffffffffffffffffffffffffffffffffffff16905090565b6101f3610995565b60008211610236576040517f08c379a000000000000000000000000000000000000000000000000000000000815260040161022d90610e03565b60405180910390fd5b81600360009054906101000a900473ffffffffffffffffffffffffffffffffffffffff1673ffffffffffffffffffffffffffffffffffffffff166370a08231336040518263ffffffff1660e01b81526004016102929190610a9a565b602060405180830381865afa1580156102af573d6000803e3d6000fd5b505050506040513d601f19601f820116820180604052508101906102d39190610e38565b1015610314576040517f08c379a000000000000000000000000000000000000000000000000000000000815260040161030b90610eb1565b60405180910390fd5b868690508b8b90501461035c576040517f08c379a000000000000000000000000000000000000000000000000000000000815260040161035390610f43565b60405180910390fd5b8484905089899050146103a4576040517f08c379a000000000000000000000000000000000000000000000000000000000815260040161039b90610fd5565b60405180910390fd5b888890508b8b9050146103ec576040517f08c379a00000000000000000000000000000000000000000000000000000000081526004016103e39061108d565b60405180910390fd5b60005b8b8b90508110156106d557600260009054906101000a900473ffffffffffffffffffffffffffffffffffffffff1673ffffffffffffffffffffffffffffffffffffffff166346bb406a89898481811061044b5761044a6110ad565b5b90506020020160208101906104609190610a5e565b8e8e85818110610473576104726110ad565b5b905060200281019061048591906110eb565b886040518563ffffffff1660e01b81526004016104a594939291906111bb565b600060405180830381600087803b1580156104bf57600080fd5b505af11580156104d3573d6000803e3d6000fd5b505050507fc9b34c8ae1298286f85a7b67e0367c546480f56ebf05d35becd8caf8d59a6c4a88888381811061050b5761050a6110ad565b5b90506020020160208101906105209190610a5e565b8d8d84818110610533576105326110ad565b5b905060200281019061054591906110eb565b8760405161055694939291906111bb565b60405180910390a1600260009054906101000a900473ffffffffffffffffffffffffffffffffffffffff1673ffffffffffffffffffffffffffffffffffffffff16637a28238a8787848181106105af576105ae6110ad565b5b90506020020160208101906105c49190610a5e565b8c8c858181106105d7576105d66110ad565b5b90506020028101906105e991906110eb565b866040518563ffffffff1660e01b815260040161060994939291906111fb565b600060405180830381600087803b15801561062357600080fd5b505af1158015610637573d6000803e3d6000fd5b505050507ff75af945d5010495101ca33b5cc9bfdcfbb52c2dfa545054255616b77954177e86868381811061066f5761066e6110ad565b5b90506020020160208101906106849190610a5e565b8b8b84818110610697576106966110ad565b5b90506020028101906106a991906110eb565b876040516106ba94939291906111bb565b60405180910390a180806106cd9061126a565b9150506103ef565b507ff4757b31e024aa77c2131ceb19659458845afed3804fc7d73baa71e6438a832d8b8b8b8b8b8b8b8b8b8b8b6040516107199b9a999897969594939291906114d9565b60405180910390a16107296109e4565b5050505050505050505050565b600260009054906101000a900473ffffffffffffffffffffffffffffffffffffffff1681565b600360009054906101000a900473ffffffffffffffffffffffffffffffffffffffff1681565b61078a610851565b600073ffffffffffffffffffffffffffffffffffffffff168173ffffffffffffffffffffffffffffffffffffffff16036107f9576040517f08c379a00000000000000000000000000000000000000000000000000000000081526004016107f0906115de565b60405180910390fd5b610802816108cf565b50565b61080d610851565b80600260006101000a81548173ffffffffffffffffffffffffffffffffffffffff021916908373ffffffffffffffffffffffffffffffffffffffff16021790555050565b6108596109ee565b73ffffffffffffffffffffffffffffffffffffffff166108776101c1565b73ffffffffffffffffffffffffffffffffffffffff16146108cd576040517f08c379a00000000000000000000000000000000000000000000000000000000081526004016108c49061164a565b60405180910390fd5b565b6000600160009054906101000a900473ffffffffffffffffffffffffffffffffffffffff16905081600160006101000a81548173ffffffffffffffffffffffffffffffffffffffff021916908373ffffffffffffffffffffffffffffffffffffffff1602179055508173ffffffffffffffffffffffffffffffffffffffff168173ffffffffffffffffffffffffffffffffffffffff167f8be0079c531659141344cd1fd0a4f28419497f9722a3daafe3b4186f6b6457e060405160405180910390a35050565b6002600054036109da576040517f08c379a00000000000000000000000000000000000000000000000000000000081526004016109d1906116b6565b60405180910390fd5b6002600081905550565b6001600081905550565b600033905090565b600080fd5b600080fd5b600073ffffffffffffffffffffffffffffffffffffffff82169050919050565b6000610a2b82610a00565b9050919050565b610a3b81610a20565b8114610a4657600080fd5b50565b600081359050610a5881610a32565b92915050565b600060208284031215610a7457610a736109f6565b5b6000610a8284828501610a49565b91505092915050565b610a9481610a20565b82525050565b6000602082019050610aaf6000830184610a8b565b92915050565b600080fd5b600080fd5b600080fd5b60008083601f840112610ada57610ad9610ab5565b5b8235905067ffffffffffffffff811115610af757610af6610aba565b5b602083019150836020820283011115610b1357610b12610abf565b5b9250929050565b60008083601f840112610b3057610b2f610ab5565b5b8235905067ffffffffffffffff811115610b4d57610b4c610aba565b5b602083019150836020820283011115610b6957610b68610abf565b5b9250929050565b6000819050919050565b610b8381610b70565b8114610b8e57600080fd5b50565b600081359050610ba081610b7a565b92915050565b600080600080600080600080600080600060e08c8e031215610bcb57610bca6109f6565b5b60008c013567ffffffffffffffff811115610be957610be86109fb565b5b610bf58e828f01610ac4565b9b509b505060208c013567ffffffffffffffff811115610c1857610c176109fb565b5b610c248e828f01610ac4565b995099505060408c013567ffffffffffffffff811115610c4757610c466109fb565b5b610c538e828f01610b1a565b975097505060608c013567ffffffffffffffff811115610c7657610c756109fb565b5b610c828e828f01610b1a565b95509550506080610c958e828f01610b91565b93505060a0610ca68e828f01610b91565b92505060c0610cb78e828f01610a49565b9150509295989b509295989b9093969950565b6000819050919050565b6000610cef610cea610ce584610a00565b610cca565b610a00565b9050919050565b6000610d0182610cd4565b9050919050565b6000610d1382610cf6565b9050919050565b610d2381610d08565b82525050565b6000602082019050610d3e6000830184610d1a565b92915050565b6000610d4f82610cf6565b9050919050565b610d5f81610d44565b82525050565b6000602082019050610d7a6000830184610d56565b92915050565b600082825260208201905092915050565b7f6445544820726571756972656420666f722069736f6c6174696f6e206d75737460008201527f2062652067726561746572207468616e20300000000000000000000000000000602082015250565b6000610ded603283610d80565b9150610df882610d91565b604082019050919050565b60006020820190508181036000830152610e1c81610de0565b9050919050565b600081519050610e3281610b7a565b92915050565b600060208284031215610e4e57610e4d6109f6565b5b6000610e5c84828501610e23565b91505092915050565b7f496e73756666696369656e7420644554482062616c616e636500000000000000600082015250565b6000610e9b601983610d80565b9150610ea682610e65565b602082019050919050565b60006020820190508181036000830152610eca81610e8e565b9050919050565b7f4f70656e20696e646578207075626c6963206b65797320616e64207374616b6560008201527f20686f75736573206d757374206265207468652073616d65206c656e67746800602082015250565b6000610f2d603f83610d80565b9150610f3882610ed1565b604082019050919050565b60006020820190508181036000830152610f5c81610f20565b9050919050565b7f5573657220696e646578207075626c6963206b65797320616e64207374616b6560008201527f20686f75736573206d757374206265207468652073616d65206c656e67746800602082015250565b6000610fbf603f83610d80565b9150610fca82610f63565b604082019050919050565b60006020820190508181036000830152610fee81610fb2565b9050919050565b7f4f70656e20696e646578207075626c6963206b65797320616e6420757365722060008201527f696e646578207075626c6963206b657973206d7573742062652074686520736160208201527f6d65206c656e6774680000000000000000000000000000000000000000000000604082015250565b6000611077604983610d80565b915061108282610ff5565b606082019050919050565b600060208201905081810360008301526110a68161106a565b9050919050565b7f4e487b7100000000000000000000000000000000000000000000000000000000600052603260045260246000fd5b600080fd5b600080fd5b600080fd5b60008083356001602003843603038112611108576111076110dc565b5b80840192508235915067ffffffffffffffff82111561112a576111296110e1565b5b602083019250600182023603831315611146576111456110e6565b5b509250929050565b600082825260208201905092915050565b82818337600083830152505050565b6000601f19601f8301169050919050565b600061118b838561114e565b935061119883858461115f565b6111a18361116e565b840190509392505050565b6111b581610b70565b82525050565b60006060820190506111d06000830187610a8b565b81810360208301526111e381858761117f565b90506111f260408301846111ac565b95945050505050565b60006060820190506112106000830187610a8b565b818103602083015261122381858761117f565b90506112326040830184610a8b565b95945050505050565b7f4e487b7100000000000000000000000000000000000000000000000000000000600052601160045260246000fd5b600061127582610b70565b91507fffffffffffffffffffffffffffffffffffffffffffffffffffffffffffffffff82036112a7576112a661123b565b5b600182019050919050565b600082825260208201905092915050565b6000819050919050565b600082825260208201905092915050565b60006112ea83856112cd565b93506112f783858461115f565b6113008361116e565b840190509392505050565b60006113188484846112de565b90509392505050565b600080fd5b600080fd5b600080fd5b6000808335600160200384360303811261134d5761134c61132b565b5b83810192508235915060208301925067ffffffffffffffff82111561137557611374611321565b5b60018202360383131561138b5761138a611326565b5b509250929050565b6000602082019050919050565b60006113ac83856112b2565b9350836020840285016113be846112c3565b8060005b878110156114045784840389526113d98284611330565b6113e486828461130b565b95506113ef84611393565b935060208b019a5050506001810190506113c2565b50829750879450505050509392505050565b600082825260208201905092915050565b6000819050919050565b61143a81610a20565b82525050565b600061144c8383611431565b60208301905092915050565b60006114676020840184610a49565b905092915050565b6000602082019050919050565b60006114888385611416565b935061149382611427565b8060005b858110156114cc576114a98284611458565b6114b38882611440565b97506114be8361146f565b925050600181019050611497565b5085925050509392505050565b600060e08201905081810360008301526114f4818d8f6113a0565b90508181036020830152611509818b8d6113a0565b9050818103604083015261151e81898b61147c565b9050818103606083015261153381878961147c565b905061154260808301866111ac565b61154f60a08301856111ac565b61155c60c0830184610a8b565b9c9b505050505050505050505050565b7f4f776e61626c653a206e6577206f776e657220697320746865207a65726f206160008201527f6464726573730000000000000000000000000000000000000000000000000000602082015250565b60006115c8602683610d80565b91506115d38261156c565b604082019050919050565b600060208201905081810360008301526115f7816115bb565b9050919050565b7f4f776e61626c653a2063616c6c6572206973206e6f7420746865206f776e6572600082015250565b6000611634602083610d80565b915061163f826115fe565b602082019050919050565b6000602082019050818103600083015261166381611627565b9050919050565b7f5265656e7472616e637947756172643a207265656e7472616e742063616c6c00600082015250565b60006116a0601f83610d80565b91506116ab8261166a565b602082019050919050565b600060208201905081810360008301526116cf81611693565b905091905056fea264697066735822122022d7fa483898ba45ba8c5638ab8014e8d7635da3620c9fba78a08f27c0c8b74864736f6c63430008110033",
  "immutableReferences": {},
  "source": "pragma solidity 0.8.17;\r\n\r\n// Import the ISavETHManager and DETH contract interfaces\r\nimport \"./ISavETHManager.sol\";\r\nimport \"./DETH.sol\";\r\nimport \"./ReentrancyGuard.sol\";\r\nimport \"./Ownable.sol\";\r\n\r\n// SPDX-License-Identifier: BUSL-1.1\r\n\r\ncontract ArbitrageExecutor is ReentrancyGuard, Ownable {\r\n    // Address of the savETH manager contract\r\n    ISavETHManager public savETHManager;\r\n\r\n    // Address of the DETH contract\r\n    DETH public deth;\r\n\r\n    // Event for when arbitrage is executed\r\n    event ArbitrageExecuted(\r\n        bytes[] blsPublicKeysOpenIndex,\r\n        bytes[] blsPublicKeysUserIndex,\r\n        address[] openIndexStakeHouses,\r\n        address[] userIndexStakeHouses,\r\n        uint256 userIndexId,\r\n        uint256 dETHRequiredForIsolation,\r\n        address userAddress\r\n    );\r\n\r\n    // Event for when a user's KNOT is added to the open index\r\n    event KNOTAddedToOpenIndex(\r\n        address stakeHouse,\r\n        bytes blsPublicKey,\r\n        uint256 userIndexId\r\n    );\r\n\r\n    // Event for when a KNOT is isolated from the open index to the user index\r\n    event KNOTIsolated(\r\n        address stakeHouse,\r\n        bytes blsPublicKey,\r\n        uint256 userIndexId\r\n    );\r\n\r\n    // Constructor function\r\n    constructor(address _savETHManagerAddress, address _dETHAddress) {\r\n        // Set the addresses of the savETH manager and DETH contracts\r\n        savETHManager = ISavETHManager(_savETHManagerAddress);\r\n        deth = DETH(_dETHAddress);\r\n    }\r\n\r\n    // Public function to execute arbitrage for a given validator\r\n    function executeArbitrage(\r\n        bytes[] calldata _blsPublicKeysOpenIndex,\r\n        bytes[] calldata _blsPublicKeysUserIndex,\r\n        address[] calldata _openIndexStakeHouses,\r\n        address[] calldata _userIndexStakeHouses,\r\n        uint256 _userIndexId,\r\n        uint256 _dETHRequiredForIsolation,\r\n        address _userAddress\r\n    ) external nonReentrant {\r\n\r\n        // This has been commented out in case this process wants to be automated\r\n        // require(msg.sender == _userAddress,\r\n        //     \"Only the user can execute arbitrage\"\r\n        // );\r\n\r\n        // Check that the dETH required for isolation is greater than 0\r\n        require(\r\n            _dETHRequiredForIsolation > 0,\r\n            \"dETH required for isolation must be greater than 0\"\r\n        );\r\n        \r\n        // Check that the user has sufficient dETH to cover the amount required for isolation\r\n        require(\r\n            deth.balanceOf(msg.sender) >= _dETHRequiredForIsolation,\r\n            \"Insufficient dETH balance\"\r\n        );\r\n\r\n        require(\r\n            _blsPublicKeysOpenIndex.length == _openIndexStakeHouses.length,\r\n            \"Open index public keys and stake houses must be the same length\"\r\n        );\r\n\r\n        require(\r\n            _blsPublicKeysUserIndex.length == _userIndexStakeHouses.length,\r\n            \"User index public keys and stake houses must be the same length\"\r\n        );\r\n\r\n        require(\r\n            _blsPublicKeysOpenIndex.length == _blsPublicKeysUserIndex.length,\r\n            \"Open index public keys and user index public keys must be the same length\"\r\n        );\r\n\r\n\r\n        for (uint i = 0; i < _blsPublicKeysOpenIndex.length; i++) {\r\n            // Isolate the validator's KNOT from the open index\r\n            savETHManager.depositAndIsolateKnotIntoIndex(_openIndexStakeHouses[i], _blsPublicKeysOpenIndex[i], _userIndexId);\r\n\r\n            emit KNOTIsolated(_openIndexStakeHouses[i], _blsPublicKeysOpenIndex[i], _userIndexId);\r\n\r\n            // Add the user's KNOT to the open index to complete the arbitrage\r\n            savETHManager.addKnotToOpenIndexAndWithdraw(_userIndexStakeHouses[i], _blsPublicKeysUserIndex[i], _userAddress);\r\n\r\n            emit KNOTAddedToOpenIndex(_userIndexStakeHouses[i], _blsPublicKeysUserIndex[i], _userIndexId);\r\n        }\r\n\r\n        // Event for when arbitrage is executed\r\n        emit ArbitrageExecuted(\r\n            _blsPublicKeysOpenIndex,\r\n            _blsPublicKeysUserIndex,\r\n            _openIndexStakeHouses,\r\n            _userIndexStakeHouses,\r\n            _userIndexId,\r\n            _dETHRequiredForIsolation,\r\n            _userAddress\r\n        );\r\n\r\n    }\r\n\r\n\r\n    // Function to allow the owner to change the savETH manager contract address\r\n    function changeSavETHManagerAddress(\r\n        address _newSavETHManagerAddress\r\n    ) external onlyOwner {\r\n        // Set the new savETH manager contract address\r\n        savETHManager = ISavETHManager(_newSavETHManagerAddress);\r\n    }\r\n\r\n    // Function to allow the owner to change the DETH contract address\r\n    function changeDETHAddress(address _newDETHAddress) external onlyOwner {\r\n        // Set the new DETH contract address\r\n        deth = DETH(_newDETHAddress);\r\n    }\r\n}\r\n",
  "sourcePath": "C:\\Users\\ronny\\OneDrive\\Desktop\\Work\\Blockswap\\blockswap_lsd_arbitrage\\contracts\\arbritrageExecuter.sol",
  "compiler": {
    "name": "solc",
    "version": "0.8.17+commit.8df45f5f.Emscripten.clang"
  },
  "schemaVersion": "3.4.11",
  "updatedAt": "2022-12-28T07:30:53.703Z",
  "devdoc": {
    "kind": "dev",
    "methods": {
      "owner()": {
        "details": "Returns the address of the current owner."
      },
      "renounceOwnership()": {
        "details": "Leaves the contract without owner. It will not be possible to call `onlyOwner` functions anymore. Can only be called by the current owner. NOTE: Renouncing ownership will leave the contract without an owner, thereby removing any functionality that is only available to the owner."
      },
      "transferOwnership(address)": {
        "details": "Transfers ownership of the contract to a new account (`newOwner`). Can only be called by the current owner."
      }
    },
    "version": 1
  },
  "userdoc": {
    "kind": "user",
    "methods": {},
    "version": 1
  }
}