{
  "contractName": "ArbitrageExecutor",
  "abi": [
    {
      "inputs": [
        {
          "internalType": "address",
          "name": "_savETHManagerAddress",
          "type": "address"
        },
        {
          "internalType": "address",
          "name": "_dETHAddress",
          "type": "address"
        }
      ],
      "stateMutability": "nonpayable",
      "type": "constructor"
    },
    {
      "anonymous": false,
      "inputs": [
        {
          "indexed": true,
          "internalType": "address",
          "name": "previousOwner",
          "type": "address"
        },
        {
          "indexed": true,
          "internalType": "address",
          "name": "newOwner",
          "type": "address"
        }
      ],
      "name": "OwnershipTransferred",
      "type": "event"
    },
    {
      "inputs": [],
      "name": "deth",
      "outputs": [
        {
          "internalType": "contract DETH",
          "name": "",
          "type": "address"
        }
      ],
      "stateMutability": "view",
      "type": "function",
      "constant": true
    },
    {
      "inputs": [],
      "name": "owner",
      "outputs": [
        {
          "internalType": "address",
          "name": "",
          "type": "address"
        }
      ],
      "stateMutability": "view",
      "type": "function",
      "constant": true
    },
    {
      "inputs": [],
      "name": "renounceOwnership",
      "outputs": [],
      "stateMutability": "nonpayable",
      "type": "function"
    },
    {
      "inputs": [],
      "name": "savETHManager",
      "outputs": [
        {
          "internalType": "contract ISavETHManager",
          "name": "",
          "type": "address"
        }
      ],
      "stateMutability": "view",
      "type": "function",
      "constant": true
    },
    {
      "inputs": [
        {
          "internalType": "address",
          "name": "newOwner",
          "type": "address"
        }
      ],
      "name": "transferOwnership",
      "outputs": [],
      "stateMutability": "nonpayable",
      "type": "function"
    },
    {
      "inputs": [
        {
          "internalType": "bytes[]",
          "name": "_blsPublicKeysOpenIndex",
          "type": "bytes[]"
        },
        {
          "internalType": "bytes[]",
          "name": "_blsPublicKeysUserIndex",
          "type": "bytes[]"
        },
        {
          "internalType": "address[]",
          "name": "_openIndexStakeHouses",
          "type": "address[]"
        },
        {
          "internalType": "address[]",
          "name": "_userIndexStakeHouses",
          "type": "address[]"
        },
        {
          "internalType": "uint256",
          "name": "_userIndexId",
          "type": "uint256"
        },
        {
          "internalType": "uint256",
          "name": "_dETHRequiredForIsolation",
          "type": "uint256"
        },
        {
          "internalType": "address",
          "name": "_userAddress",
          "type": "address"
        }
      ],
      "name": "executeArbitrage",
      "outputs": [],
      "stateMutability": "nonpayable",
      "type": "function"
    },
    {
      "inputs": [
        {
          "internalType": "address",
          "name": "_newSavETHManagerAddress",
          "type": "address"
        }
      ],
      "name": "changeSavETHManagerAddress",
      "outputs": [],
      "stateMutability": "nonpayable",
      "type": "function"
    },
    {
      "inputs": [
        {
          "internalType": "address",
          "name": "_newDETHAddress",
          "type": "address"
        }
      ],
      "name": "changeDETHAddress",
      "outputs": [],
      "stateMutability": "nonpayable",
      "type": "function"
    }
  ],
  "bytecode": "0x60806040523480156200001157600080fd5b506040516200105c3803806200105c833981810160405281019062000037919062000221565b60016000819055506200005f62000053620000e960201b60201c565b620000f160201b60201c565b81600260006101000a81548173ffffffffffffffffffffffffffffffffffffffff021916908373ffffffffffffffffffffffffffffffffffffffff16021790555080600360006101000a81548173ffffffffffffffffffffffffffffffffffffffff021916908373ffffffffffffffffffffffffffffffffffffffff160217905550505062000268565b600033905090565b6000600160009054906101000a900473ffffffffffffffffffffffffffffffffffffffff16905081600160006101000a81548173ffffffffffffffffffffffffffffffffffffffff021916908373ffffffffffffffffffffffffffffffffffffffff1602179055508173ffffffffffffffffffffffffffffffffffffffff168173ffffffffffffffffffffffffffffffffffffffff167f8be0079c531659141344cd1fd0a4f28419497f9722a3daafe3b4186f6b6457e060405160405180910390a35050565b600080fd5b600073ffffffffffffffffffffffffffffffffffffffff82169050919050565b6000620001e982620001bc565b9050919050565b620001fb81620001dc565b81146200020757600080fd5b50565b6000815190506200021b81620001f0565b92915050565b600080604083850312156200023b576200023a620001b7565b5b60006200024b858286016200020a565b92505060206200025e858286016200020a565b9150509250929050565b610de480620002786000396000f3fe608060405234801561001057600080fd5b50600436106100885760003560e01c8063c5334aaf1161005b578063c5334aaf146100ed578063d18ccd891461010b578063f2fde38b14610129578063fa94f72a1461014557610088565b80634503d9eb1461008d578063715018a6146100a95780638da5cb5b146100b3578063be4bcab3146100d1575b600080fd5b6100a760048036038101906100a2919061070c565b610161565b005b6100b16101ad565b005b6100bb6101c1565b6040516100c89190610748565b60405180910390f35b6100eb60048036038101906100e69190610854565b6101eb565b005b6100f56103e4565b60405161010291906109d7565b60405180910390f35b61011361040a565b6040516101209190610a13565b60405180910390f35b610143600480360381019061013e919061070c565b610430565b005b61015f600480360381019061015a919061070c565b6104b3565b005b6101696104ff565b80600360006101000a81548173ffffffffffffffffffffffffffffffffffffffff021916908373ffffffffffffffffffffffffffffffffffffffff16021790555050565b6101b56104ff565b6101bf600061057d565b565b6000600160009054906101000a900473ffffffffffffffffffffffffffffffffffffffff16905090565b6101f3610643565b60005b8b8b90508110156103ce57600260009054906101000a900473ffffffffffffffffffffffffffffffffffffffff1673ffffffffffffffffffffffffffffffffffffffff16630eaefba689898481811061025257610251610a2e565b5b9050602002016020810190610267919061070c565b8e8e8581811061027a57610279610a2e565b5b905060200281019061028c9190610a6c565b886040518563ffffffff1660e01b81526004016102ac9493929190610b3c565b600060405180830381600087803b1580156102c657600080fd5b505af11580156102da573d6000803e3d6000fd5b50505050600260009054906101000a900473ffffffffffffffffffffffffffffffffffffffff1673ffffffffffffffffffffffffffffffffffffffff1663cd3e2a8087878481811061032f5761032e610a2e565b5b9050602002016020810190610344919061070c565b8c8c8581811061035757610356610a2e565b5b90506020028101906103699190610a6c565b866040518563ffffffff1660e01b81526004016103899493929190610b7c565b600060405180830381600087803b1580156103a357600080fd5b505af11580156103b7573d6000803e3d6000fd5b5050505080806103c690610beb565b9150506101f6565b506103d7610692565b5050505050505050505050565b600260009054906101000a900473ffffffffffffffffffffffffffffffffffffffff1681565b600360009054906101000a900473ffffffffffffffffffffffffffffffffffffffff1681565b6104386104ff565b600073ffffffffffffffffffffffffffffffffffffffff168173ffffffffffffffffffffffffffffffffffffffff16036104a7576040517f08c379a000000000000000000000000000000000000000000000000000000000815260040161049e90610cb6565b60405180910390fd5b6104b08161057d565b50565b6104bb6104ff565b80600260006101000a81548173ffffffffffffffffffffffffffffffffffffffff021916908373ffffffffffffffffffffffffffffffffffffffff16021790555050565b61050761069c565b73ffffffffffffffffffffffffffffffffffffffff166105256101c1565b73ffffffffffffffffffffffffffffffffffffffff161461057b576040517f08c379a000000000000000000000000000000000000000000000000000000000815260040161057290610d22565b60405180910390fd5b565b6000600160009054906101000a900473ffffffffffffffffffffffffffffffffffffffff16905081600160006101000a81548173ffffffffffffffffffffffffffffffffffffffff021916908373ffffffffffffffffffffffffffffffffffffffff1602179055508173ffffffffffffffffffffffffffffffffffffffff168173ffffffffffffffffffffffffffffffffffffffff167f8be0079c531659141344cd1fd0a4f28419497f9722a3daafe3b4186f6b6457e060405160405180910390a35050565b600260005403610688576040517f08c379a000000000000000000000000000000000000000000000000000000000815260040161067f90610d8e565b60405180910390fd5b6002600081905550565b6001600081905550565b600033905090565b600080fd5b600080fd5b600073ffffffffffffffffffffffffffffffffffffffff82169050919050565b60006106d9826106ae565b9050919050565b6106e9816106ce565b81146106f457600080fd5b50565b600081359050610706816106e0565b92915050565b600060208284031215610722576107216106a4565b5b6000610730848285016106f7565b91505092915050565b610742816106ce565b82525050565b600060208201905061075d6000830184610739565b92915050565b600080fd5b600080fd5b600080fd5b60008083601f84011261078857610787610763565b5b8235905067ffffffffffffffff8111156107a5576107a4610768565b5b6020830191508360208202830111156107c1576107c061076d565b5b9250929050565b60008083601f8401126107de576107dd610763565b5b8235905067ffffffffffffffff8111156107fb576107fa610768565b5b6020830191508360208202830111156108175761081661076d565b5b9250929050565b6000819050919050565b6108318161081e565b811461083c57600080fd5b50565b60008135905061084e81610828565b92915050565b600080600080600080600080600080600060e08c8e031215610879576108786106a4565b5b60008c013567ffffffffffffffff811115610897576108966106a9565b5b6108a38e828f01610772565b9b509b505060208c013567ffffffffffffffff8111156108c6576108c56106a9565b5b6108d28e828f01610772565b995099505060408c013567ffffffffffffffff8111156108f5576108f46106a9565b5b6109018e828f016107c8565b975097505060608c013567ffffffffffffffff811115610924576109236106a9565b5b6109308e828f016107c8565b955095505060806109438e828f0161083f565b93505060a06109548e828f0161083f565b92505060c06109658e828f016106f7565b9150509295989b509295989b9093969950565b6000819050919050565b600061099d610998610993846106ae565b610978565b6106ae565b9050919050565b60006109af82610982565b9050919050565b60006109c1826109a4565b9050919050565b6109d1816109b6565b82525050565b60006020820190506109ec60008301846109c8565b92915050565b60006109fd826109a4565b9050919050565b610a0d816109f2565b82525050565b6000602082019050610a286000830184610a04565b92915050565b7f4e487b7100000000000000000000000000000000000000000000000000000000600052603260045260246000fd5b600080fd5b600080fd5b600080fd5b60008083356001602003843603038112610a8957610a88610a5d565b5b80840192508235915067ffffffffffffffff821115610aab57610aaa610a62565b5b602083019250600182023603831315610ac757610ac6610a67565b5b509250929050565b600082825260208201905092915050565b82818337600083830152505050565b6000601f19601f8301169050919050565b6000610b0c8385610acf565b9350610b19838584610ae0565b610b2283610aef565b840190509392505050565b610b368161081e565b82525050565b6000606082019050610b516000830187610739565b8181036020830152610b64818587610b00565b9050610b736040830184610b2d565b95945050505050565b6000606082019050610b916000830187610739565b8181036020830152610ba4818587610b00565b9050610bb36040830184610739565b95945050505050565b7f4e487b7100000000000000000000000000000000000000000000000000000000600052601160045260246000fd5b6000610bf68261081e565b91507fffffffffffffffffffffffffffffffffffffffffffffffffffffffffffffffff8203610c2857610c27610bbc565b5b600182019050919050565b600082825260208201905092915050565b7f4f776e61626c653a206e6577206f776e657220697320746865207a65726f206160008201527f6464726573730000000000000000000000000000000000000000000000000000602082015250565b6000610ca0602683610c33565b9150610cab82610c44565b604082019050919050565b60006020820190508181036000830152610ccf81610c93565b9050919050565b7f4f776e61626c653a2063616c6c6572206973206e6f7420746865206f776e6572600082015250565b6000610d0c602083610c33565b9150610d1782610cd6565b602082019050919050565b60006020820190508181036000830152610d3b81610cff565b9050919050565b7f5265656e7472616e637947756172643a207265656e7472616e742063616c6c00600082015250565b6000610d78601f83610c33565b9150610d8382610d42565b602082019050919050565b60006020820190508181036000830152610da781610d6b565b905091905056fea26469706673582212203a491358fb736b43cfc29261648b94b7d897cce659bdc3acac21c5ed5aea8cf964736f6c63430008110033",
  "immutableReferences": {},
  "source": "pragma solidity 0.8.17;\r\n\r\n// Import the ISavETHManager and DETH contract interfaces\r\nimport \"./ISavETHManager.sol\";\r\nimport \"./DETH.sol\";\r\nimport \"./ReentrancyGuard.sol\";\r\nimport \"./Ownable.sol\";\r\n\r\n// SPDX-License-Identifier: BUSL-1.1\r\n\r\ncontract ArbitrageExecutor is ReentrancyGuard, Ownable {\r\n    // Address of the savETH manager contract\r\n    ISavETHManager public savETHManager;\r\n\r\n    // Address of the DETH contract\r\n    DETH public deth;\r\n\r\n    // Constructor function\r\n    constructor(address _savETHManagerAddress, address _dETHAddress) {\r\n        // Set the addresses of the savETH manager and DETH contracts\r\n        savETHManager = ISavETHManager(_savETHManagerAddress);\r\n        deth = DETH(_dETHAddress);\r\n    }\r\n\r\n    // Public function to execute arbitrage for a given validator\r\n    function executeArbitrage(\r\n        bytes[] calldata _blsPublicKeysOpenIndex,\r\n        bytes[] calldata _blsPublicKeysUserIndex,\r\n        address[] calldata _openIndexStakeHouses,\r\n        address[] calldata _userIndexStakeHouses,\r\n        uint256 _userIndexId,\r\n        uint256 _dETHRequiredForIsolation,\r\n        address _userAddress\r\n    ) external nonReentrant {\r\n        // require(msg.sender == _userAddress,\r\n        //     \"Only the user can execute arbitrage\"\r\n        // );\r\n\r\n        // // Check that the dETH required for isolation is greater than 0\r\n        // require(\r\n        //     _dETHRequiredForIsolation > 0,\r\n        //     \"dETH required for isolation must be greater than 0\"\r\n        // );\r\n        \r\n        // // Check that the user has sufficient dETH to cover the amount required for isolation\r\n        // require(\r\n        //     deth.balanceOf(_userAddress) >= _dETHRequiredForIsolation,\r\n        //     \"Insufficient dETH balance\"\r\n        // );\r\n\r\n        // require(\r\n        //     _blsPublicKeysOpenIndex.length == _openIndexStakeHouses.length,\r\n        //     \"Open index public keys and stake houses must be the same length\"\r\n        // );\r\n\r\n        // require(\r\n        //     _blsPublicKeysUserIndex.length == _userIndexStakeHouses.length,\r\n        //     \"User index public keys and stake houses must be the same length\"\r\n        // );\r\n\r\n        // require(\r\n        //     _blsPublicKeysOpenIndex.length == _blsPublicKeysUserIndex.length,\r\n        //     \"Open index public keys and user index public keys must be the same length\"\r\n        // );\r\n\r\n\r\n        for (uint i = 0; i < _blsPublicKeysOpenIndex.length; i++) {\r\n            // Isolate the validator's KNOT from the open index\r\n            savETHManager.isolateKnotFromOpenIndex(_openIndexStakeHouses[i], _blsPublicKeysOpenIndex[i], _userIndexId);\r\n\r\n            savETHManager.addKnotToOpenIndex(_userIndexStakeHouses[i], _blsPublicKeysUserIndex[i], _userAddress);\r\n        }\r\n\r\n    }\r\n\r\n\r\n    // Function to allow the owner to change the savETH manager contract address\r\n    function changeSavETHManagerAddress(\r\n        address _newSavETHManagerAddress\r\n    ) external onlyOwner {\r\n        // Set the new savETH manager contract address\r\n        savETHManager = ISavETHManager(_newSavETHManagerAddress);\r\n    }\r\n\r\n    // Function to allow the owner to change the DETH contract address\r\n    function changeDETHAddress(address _newDETHAddress) external onlyOwner {\r\n        // Set the new DETH contract address\r\n        deth = DETH(_newDETHAddress);\r\n    }\r\n}\r\n",
  "sourcePath": "C:\\Users\\ronny\\OneDrive\\Desktop\\Work\\Blockswap\\blockswap_lsd_arbitrage\\python_truffle\\contracts\\arbritrageExecuter.sol",
  "compiler": {
    "name": "solc",
    "version": "0.8.17+commit.8df45f5f.Emscripten.clang"
  },
  "schemaVersion": "3.4.11",
  "updatedAt": "2022-12-28T04:22:08.480Z",
  "networkType": "ethereum",
  "devdoc": {
    "kind": "dev",
    "methods": {
      "owner()": {
        "details": "Returns the address of the current owner."
      },
      "renounceOwnership()": {
        "details": "Leaves the contract without owner. It will not be possible to call `onlyOwner` functions anymore. Can only be called by the current owner. NOTE: Renouncing ownership will leave the contract without an owner, thereby removing any functionality that is only available to the owner."
      },
      "transferOwnership(address)": {
        "details": "Transfers ownership of the contract to a new account (`newOwner`). Can only be called by the current owner."
      }
    },
    "version": 1
  },
  "userdoc": {
    "kind": "user",
    "methods": {},
    "version": 1
  }
}